{
  "_format": "hh-sol-artifact-1",
  "contractName": "Escrow",
  "sourceName": "contracts/Escrow.sol",
  "abi": [
    {
      "inputs": [
        {
          "internalType": "uint256",
          "name": "_fee",
          "type": "uint256"
        }
      ],
      "stateMutability": "nonpayable",
      "type": "constructor"
    },
    {
      "anonymous": false,
      "inputs": [
        {
          "indexed": false,
          "internalType": "uint256",
          "name": "id",
          "type": "uint256"
        },
        {
          "indexed": false,
          "internalType": "uint256",
          "name": "minAmount",
          "type": "uint256"
        },
        {
          "indexed": false,
          "internalType": "string",
          "name": "tittle",
          "type": "string"
        },
        {
          "indexed": false,
          "internalType": "string",
          "name": "description",
          "type": "string"
        },
        {
          "indexed": false,
          "internalType": "address",
          "name": "owner",
          "type": "address"
        },
        {
          "indexed": false,
          "internalType": "bool",
          "name": "active",
          "type": "bool"
        },
        {
          "indexed": false,
          "internalType": "address payable",
          "name": "highestBidder",
          "type": "address"
        },
        {
          "indexed": false,
          "internalType": "uint256",
          "name": "closingTime",
          "type": "uint256"
        }
      ],
      "name": "AuctionCreated",
      "type": "event"
    },
    {
      "inputs": [
        {
          "internalType": "uint256",
          "name": "id",
          "type": "uint256"
        }
      ],
      "name": "Approve",
      "outputs": [],
      "stateMutability": "nonpayable",
      "type": "function"
    },
    {
      "inputs": [
        {
          "internalType": "uint256",
          "name": "id",
          "type": "uint256"
        }
      ],
      "name": "Bid",
      "outputs": [],
      "stateMutability": "payable",
      "type": "function"
    },
    {
      "inputs": [
        {
          "internalType": "uint256",
          "name": "id",
          "type": "uint256"
        }
      ],
      "name": "Close",
      "outputs": [],
      "stateMutability": "nonpayable",
      "type": "function"
    },
    {
      "inputs": [
        {
          "internalType": "uint256",
          "name": "id",
          "type": "uint256"
        }
      ],
      "name": "GetAuction",
      "outputs": [
        {
          "components": [
            {
              "internalType": "uint256",
              "name": "id",
              "type": "uint256"
            },
            {
              "internalType": "uint256",
              "name": "minAmount",
              "type": "uint256"
            },
            {
              "internalType": "string",
              "name": "tittle",
              "type": "string"
            },
            {
              "internalType": "string",
              "name": "description",
              "type": "string"
            },
            {
              "internalType": "address",
              "name": "owner",
              "type": "address"
            },
            {
              "internalType": "bool",
              "name": "active",
              "type": "bool"
            },
            {
              "internalType": "address payable",
              "name": "highestBidder",
              "type": "address"
            },
            {
              "internalType": "uint256",
              "name": "closingTime",
              "type": "uint256"
            }
          ],
          "internalType": "struct Escrow.Auction",
          "name": "",
          "type": "tuple"
        }
      ],
      "stateMutability": "view",
      "type": "function"
    },
    {
      "inputs": [],
      "name": "GetAuctions",
      "outputs": [
        {
          "components": [
            {
              "internalType": "uint256",
              "name": "id",
              "type": "uint256"
            },
            {
              "internalType": "uint256",
              "name": "minAmount",
              "type": "uint256"
            },
            {
              "internalType": "string",
              "name": "tittle",
              "type": "string"
            },
            {
              "internalType": "string",
              "name": "description",
              "type": "string"
            },
            {
              "internalType": "address",
              "name": "owner",
              "type": "address"
            },
            {
              "internalType": "bool",
              "name": "active",
              "type": "bool"
            },
            {
              "internalType": "address payable",
              "name": "highestBidder",
              "type": "address"
            },
            {
              "internalType": "uint256",
              "name": "closingTime",
              "type": "uint256"
            }
          ],
          "internalType": "struct Escrow.Auction[]",
          "name": "",
          "type": "tuple[]"
        }
      ],
      "stateMutability": "view",
      "type": "function"
    },
    {
      "inputs": [
        {
          "internalType": "uint256",
          "name": "id",
          "type": "uint256"
        }
      ],
      "name": "GetEscrow",
      "outputs": [
        {
          "components": [
            {
              "internalType": "uint256",
              "name": "id",
              "type": "uint256"
            },
            {
              "internalType": "uint256",
              "name": "amount",
              "type": "uint256"
            },
            {
              "internalType": "address payable",
              "name": "owner",
              "type": "address"
            },
            {
              "internalType": "address",
              "name": "buyer",
              "type": "address"
            },
            {
              "internalType": "bool",
              "name": "ownerApproved",
              "type": "bool"
            },
            {
              "internalType": "bool",
              "name": "buyerApproved",
              "type": "bool"
            },
            {
              "internalType": "bool",
              "name": "active",
              "type": "bool"
            },
            {
              "internalType": "uint256",
              "name": "auctionId",
              "type": "uint256"
            },
            {
              "internalType": "uint256",
              "name": "closingTime",
              "type": "uint256"
            }
          ],
          "internalType": "struct Escrow.EscrowType",
          "name": "",
          "type": "tuple"
        }
      ],
      "stateMutability": "view",
      "type": "function"
    },
    {
      "inputs": [],
      "name": "GetEscrows",
      "outputs": [
        {
          "components": [
            {
              "internalType": "uint256",
              "name": "id",
              "type": "uint256"
            },
            {
              "internalType": "uint256",
              "name": "amount",
              "type": "uint256"
            },
            {
              "internalType": "address payable",
              "name": "owner",
              "type": "address"
            },
            {
              "internalType": "address",
              "name": "buyer",
              "type": "address"
            },
            {
              "internalType": "bool",
              "name": "ownerApproved",
              "type": "bool"
            },
            {
              "internalType": "bool",
              "name": "buyerApproved",
              "type": "bool"
            },
            {
              "internalType": "bool",
              "name": "active",
              "type": "bool"
            },
            {
              "internalType": "uint256",
              "name": "auctionId",
              "type": "uint256"
            },
            {
              "internalType": "uint256",
              "name": "closingTime",
              "type": "uint256"
            }
          ],
          "internalType": "struct Escrow.EscrowType[]",
          "name": "",
          "type": "tuple[]"
        }
      ],
      "stateMutability": "view",
      "type": "function"
    },
    {
      "inputs": [
        {
          "internalType": "string",
          "name": "tittle",
          "type": "string"
        },
        {
          "internalType": "string",
          "name": "description",
          "type": "string"
        },
        {
          "internalType": "uint256",
          "name": "minAmount",
          "type": "uint256"
        }
      ],
      "name": "PublishAuction",
      "outputs": [],
      "stateMutability": "nonpayable",
      "type": "function"
    },
    {
      "inputs": [
        {
          "internalType": "uint256",
          "name": "",
          "type": "uint256"
        }
      ],
      "name": "auctions",
      "outputs": [
        {
          "internalType": "uint256",
          "name": "id",
          "type": "uint256"
        },
        {
          "internalType": "uint256",
          "name": "minAmount",
          "type": "uint256"
        },
        {
          "internalType": "string",
          "name": "tittle",
          "type": "string"
        },
        {
          "internalType": "string",
          "name": "description",
          "type": "string"
        },
        {
          "internalType": "address",
          "name": "owner",
          "type": "address"
        },
        {
          "internalType": "bool",
          "name": "active",
          "type": "bool"
        },
        {
          "internalType": "address payable",
          "name": "highestBidder",
          "type": "address"
        },
        {
          "internalType": "uint256",
          "name": "closingTime",
          "type": "uint256"
        }
      ],
      "stateMutability": "view",
      "type": "function"
    },
    {
      "inputs": [
        {
          "internalType": "uint256",
          "name": "",
          "type": "uint256"
        }
      ],
      "name": "escrows",
      "outputs": [
        {
          "internalType": "uint256",
          "name": "id",
          "type": "uint256"
        },
        {
          "internalType": "uint256",
          "name": "amount",
          "type": "uint256"
        },
        {
          "internalType": "address payable",
          "name": "owner",
          "type": "address"
        },
        {
          "internalType": "address",
          "name": "buyer",
          "type": "address"
        },
        {
          "internalType": "bool",
          "name": "ownerApproved",
          "type": "bool"
        },
        {
          "internalType": "bool",
          "name": "buyerApproved",
          "type": "bool"
        },
        {
          "internalType": "bool",
          "name": "active",
          "type": "bool"
        },
        {
          "internalType": "uint256",
          "name": "auctionId",
          "type": "uint256"
        },
        {
          "internalType": "uint256",
          "name": "closingTime",
          "type": "uint256"
        }
      ],
      "stateMutability": "view",
      "type": "function"
    },
    {
      "inputs": [],
      "name": "fee",
      "outputs": [
        {
          "internalType": "uint256",
          "name": "",
          "type": "uint256"
        }
      ],
      "stateMutability": "view",
      "type": "function"
    }
  ],
  "bytecode": "0x60806040523480156200001157600080fd5b506040516200284f3803806200284f833981810160405281019062000037919062000085565b8060028190555050620000b7565b600080fd5b6000819050919050565b6200005f816200004a565b81146200006b57600080fd5b50565b6000815190506200007f8162000054565b92915050565b6000602082840312156200009e576200009d62000045565b5b6000620000ae848285016200006e565b91505092915050565b61278880620000c76000396000f3fe60806040526004361061009c5760003560e01c806377b92c071161006457806377b92c07146101bd5780637a183e84146101e65780638857fa3514610202578063bf67515a1461023f578063d2c03ee014610268578063ddca3f43146102915761009c565b8063012f52ee146100a1578063068f7213146100e6578063151ce5ae1461011157806330c634391461013c578063571a26a014610179575b600080fd5b3480156100ad57600080fd5b506100c860048036038101906100c39190611838565b6102bc565b6040516100dd999897969594939291906118f1565b60405180910390f35b3480156100f257600080fd5b506100fb610381565b6040516101089190611b21565b60405180910390f35b34801561011d57600080fd5b50610126610506565b6040516101339190611d4c565b60405180910390f35b34801561014857600080fd5b50610163600480360381019061015e9190611838565b61076f565b6040516101709190611e25565b60405180910390f35b34801561018557600080fd5b506101a0600480360381019061019b9190611838565b6109b5565b6040516101b4989796959493929190611e91565b60405180910390f35b3480156101c957600080fd5b506101e460048036038101906101df9190611838565b610b6a565b005b61020060048036038101906101fb9190611838565b610de8565b005b34801561020e57600080fd5b5061022960048036038101906102249190611838565b611009565b6040516102369190611fd4565b60405180910390f35b34801561024b57600080fd5b5061026660048036038101906102619190611838565b61116b565b005b34801561027457600080fd5b5061028f600480360381019061028a9190612055565b611465565b005b34801561029d57600080fd5b506102a6611701565b6040516102b391906120ea565b60405180910390f35b600181815481106102cc57600080fd5b90600052602060002090600602016000915090508060000154908060010154908060020160009054906101000a900473ffffffffffffffffffffffffffffffffffffffff16908060030160009054906101000a900473ffffffffffffffffffffffffffffffffffffffff16908060030160149054906101000a900460ff16908060030160159054906101000a900460ff16908060030160169054906101000a900460ff16908060040154908060050154905089565b60606001805480602002602001604051908101604052809291908181526020016000905b828210156104fd57838290600052602060002090600602016040518061012001604052908160008201548152602001600182015481526020016002820160009054906101000a900473ffffffffffffffffffffffffffffffffffffffff1673ffffffffffffffffffffffffffffffffffffffff1673ffffffffffffffffffffffffffffffffffffffff1681526020016003820160009054906101000a900473ffffffffffffffffffffffffffffffffffffffff1673ffffffffffffffffffffffffffffffffffffffff1673ffffffffffffffffffffffffffffffffffffffff1681526020016003820160149054906101000a900460ff161515151581526020016003820160159054906101000a900460ff161515151581526020016003820160169054906101000a900460ff1615151515815260200160048201548152602001600582015481525050815260200190600101906103a5565b50505050905090565b60606000805480602002602001604051908101604052809291908181526020016000905b82821015610766578382906000526020600020906007020160405180610100016040529081600082015481526020016001820154815260200160028201805461057290612134565b80601f016020809104026020016040519081016040528092919081815260200182805461059e90612134565b80156105eb5780601f106105c0576101008083540402835291602001916105eb565b820191906000526020600020905b8154815290600101906020018083116105ce57829003601f168201915b5050505050815260200160038201805461060490612134565b80601f016020809104026020016040519081016040528092919081815260200182805461063090612134565b801561067d5780601f106106525761010080835404028352916020019161067d565b820191906000526020600020905b81548152906001019060200180831161066057829003601f168201915b505050505081526020016004820160009054906101000a900473ffffffffffffffffffffffffffffffffffffffff1673ffffffffffffffffffffffffffffffffffffffff1673ffffffffffffffffffffffffffffffffffffffff1681526020016004820160149054906101000a900460ff161515151581526020016005820160009054906101000a900473ffffffffffffffffffffffffffffffffffffffff1673ffffffffffffffffffffffffffffffffffffffff1673ffffffffffffffffffffffffffffffffffffffff1681526020016006820154815250508152602001906001019061052a565b50505050905090565b610777611707565b6000828154811061078b5761078a612165565b5b90600052602060002090600702016040518061010001604052908160008201548152602001600182015481526020016002820180546107c990612134565b80601f01602080910402602001604051908101604052809291908181526020018280546107f590612134565b80156108425780601f1061081757610100808354040283529160200191610842565b820191906000526020600020905b81548152906001019060200180831161082557829003601f168201915b5050505050815260200160038201805461085b90612134565b80601f016020809104026020016040519081016040528092919081815260200182805461088790612134565b80156108d45780601f106108a9576101008083540402835291602001916108d4565b820191906000526020600020905b8154815290600101906020018083116108b757829003601f168201915b505050505081526020016004820160009054906101000a900473ffffffffffffffffffffffffffffffffffffffff1673ffffffffffffffffffffffffffffffffffffffff1673ffffffffffffffffffffffffffffffffffffffff1681526020016004820160149054906101000a900460ff161515151581526020016005820160009054906101000a900473ffffffffffffffffffffffffffffffffffffffff1673ffffffffffffffffffffffffffffffffffffffff1673ffffffffffffffffffffffffffffffffffffffff1681526020016006820154815250509050919050565b600081815481106109c557600080fd5b90600052602060002090600702016000915090508060000154908060010154908060020180546109f490612134565b80601f0160208091040260200160405190810160405280929190818152602001828054610a2090612134565b8015610a6d5780601f10610a4257610100808354040283529160200191610a6d565b820191906000526020600020905b815481529060010190602001808311610a5057829003601f168201915b505050505090806003018054610a8290612134565b80601f0160208091040260200160405190810160405280929190818152602001828054610aae90612134565b8015610afb5780601f10610ad057610100808354040283529160200191610afb565b820191906000526020600020905b815481529060010190602001808311610ade57829003601f168201915b5050505050908060040160009054906101000a900473ffffffffffffffffffffffffffffffffffffffff16908060040160149054906101000a900460ff16908060050160009054906101000a900473ffffffffffffffffffffffffffffffffffffffff16908060060154905088565b600060018281548110610b8057610b7f612165565b5b90600052602060002090600602019050600115158160030160169054906101000a900460ff16151514610be8576040517f08c379a0000000000000000000000000000000000000000000000000000000008152600401610bdf906121e0565b60405180910390fd5b80600501544210610c2e576040517f08c379a0000000000000000000000000000000000000000000000000000000008152600401610c259061224c565b60405180910390fd5b3373ffffffffffffffffffffffffffffffffffffffff168160030160009054906101000a900473ffffffffffffffffffffffffffffffffffffffff1673ffffffffffffffffffffffffffffffffffffffff1603610ca35760018160030160156101000a81548160ff0219169083151502179055505b3373ffffffffffffffffffffffffffffffffffffffff168160020160009054906101000a900473ffffffffffffffffffffffffffffffffffffffff1673ffffffffffffffffffffffffffffffffffffffff1603610d185760018160030160146101000a81548160ff0219169083151502179055505b600115158160030160149054906101000a900460ff161515148015610d525750600115158160030160159054906101000a900460ff161515145b15610de45760008160030160166101000a81548160ff0219169083151502179055508060020160009054906101000a900473ffffffffffffffffffffffffffffffffffffffff1673ffffffffffffffffffffffffffffffffffffffff166108fc82600101549081150290604051600060405180830381858888f19350505050158015610de2573d6000803e3d6000fd5b505b5050565b6000808281548110610dfd57610dfc612165565b5b90600052602060002090600702019050600115158160040160149054906101000a900460ff16151514610e65576040517f08c379a0000000000000000000000000000000000000000000000000000000008152600401610e5c906122b8565b60405180910390fd5b80600101543411610eab576040517f08c379a0000000000000000000000000000000000000000000000000000000008152600401610ea290612324565b60405180910390fd5b80600601544210610ef1576040517f08c379a0000000000000000000000000000000000000000000000000000000008152600401610ee890612390565b60405180910390fd5b600073ffffffffffffffffffffffffffffffffffffffff168160050160009054906101000a900473ffffffffffffffffffffffffffffffffffffffff1673ffffffffffffffffffffffffffffffffffffffff1614610fb9578060050160009054906101000a900473ffffffffffffffffffffffffffffffffffffffff1673ffffffffffffffffffffffffffffffffffffffff166108fc82600101549081150290604051600060405180830381858888f19350505050158015610fb7573d6000803e3d6000fd5b505b348160010181905550338160050160006101000a81548173ffffffffffffffffffffffffffffffffffffffff021916908373ffffffffffffffffffffffffffffffffffffffff1602179055505050565b61101161177a565b6001828154811061102557611024612165565b5b90600052602060002090600602016040518061012001604052908160008201548152602001600182015481526020016002820160009054906101000a900473ffffffffffffffffffffffffffffffffffffffff1673ffffffffffffffffffffffffffffffffffffffff1673ffffffffffffffffffffffffffffffffffffffff1681526020016003820160009054906101000a900473ffffffffffffffffffffffffffffffffffffffff1673ffffffffffffffffffffffffffffffffffffffff1673ffffffffffffffffffffffffffffffffffffffff1681526020016003820160149054906101000a900460ff161515151581526020016003820160159054906101000a900460ff161515151581526020016003820160169054906101000a900460ff16151515158152602001600482015481526020016005820154815250509050919050565b60008082815481106111805761117f612165565b5b906000526020600020906007020190503373ffffffffffffffffffffffffffffffffffffffff168160040160009054906101000a900473ffffffffffffffffffffffffffffffffffffffff1673ffffffffffffffffffffffffffffffffffffffff1614611222576040517f08c379a000000000000000000000000000000000000000000000000000000000815260040161121990612422565b60405180910390fd5b60008160040160146101000a81548160ff02191690831515021790555060006040518061012001604052806001805490508152602001836001015481526020018360040160009054906101000a900473ffffffffffffffffffffffffffffffffffffffff1673ffffffffffffffffffffffffffffffffffffffff1681526020018360050160009054906101000a900473ffffffffffffffffffffffffffffffffffffffff1673ffffffffffffffffffffffffffffffffffffffff1681526020016000151581526020016000151581526020016001151581526020018360000154815260200162015180426113169190612471565b81525090506001819080600181540180825580915050600190039060005260206000209060060201600090919091909150600082015181600001556020820151816001015560408201518160020160006101000a81548173ffffffffffffffffffffffffffffffffffffffff021916908373ffffffffffffffffffffffffffffffffffffffff16021790555060608201518160030160006101000a81548173ffffffffffffffffffffffffffffffffffffffff021916908373ffffffffffffffffffffffffffffffffffffffff16021790555060808201518160030160146101000a81548160ff02191690831515021790555060a08201518160030160156101000a81548160ff02191690831515021790555060c08201518160030160166101000a81548160ff02191690831515021790555060e0820151816004015561010082015181600501555050505050565b6000604051806101000160405280600080549050815260200183815260200187878080601f016020809104026020016040519081016040528093929190818152602001838380828437600081840152601f19601f82011690508083019250505050505050815260200185858080601f016020809104026020016040519081016040528093929190818152602001838380828437600081840152601f19601f8201169050808301925050505050505081526020013373ffffffffffffffffffffffffffffffffffffffff168152602001600115158152602001600073ffffffffffffffffffffffffffffffffffffffff16815260200162015180426115699190612471565b81525090506000819080600181540180825580915050600190039060005260206000209060070201600090919091909150600082015181600001556020820151816001015560408201518160020190816115c39190612680565b5060608201518160030190816115d99190612680565b5060808201518160040160006101000a81548173ffffffffffffffffffffffffffffffffffffffff021916908373ffffffffffffffffffffffffffffffffffffffff16021790555060a08201518160040160146101000a81548160ff02191690831515021790555060c08201518160050160006101000a81548173ffffffffffffffffffffffffffffffffffffffff021916908373ffffffffffffffffffffffffffffffffffffffff16021790555060e0820151816006015550507f7f103940611eb86d7ed758217a695405113f93b5084e7149597224345ab64738816000015182602001518360400151846060015185608001518660a001518760c001518860e001516040516116f1989796959493929190611e91565b60405180910390a1505050505050565b60025481565b60405180610100016040528060008152602001600081526020016060815260200160608152602001600073ffffffffffffffffffffffffffffffffffffffff168152602001600015158152602001600073ffffffffffffffffffffffffffffffffffffffff168152602001600081525090565b6040518061012001604052806000815260200160008152602001600073ffffffffffffffffffffffffffffffffffffffff168152602001600073ffffffffffffffffffffffffffffffffffffffff16815260200160001515815260200160001515815260200160001515815260200160008152602001600081525090565b600080fd5b600080fd5b6000819050919050565b61181581611802565b811461182057600080fd5b50565b6000813590506118328161180c565b92915050565b60006020828403121561184e5761184d6117f8565b5b600061185c84828501611823565b91505092915050565b61186e81611802565b82525050565b600073ffffffffffffffffffffffffffffffffffffffff82169050919050565b600061189f82611874565b9050919050565b6118af81611894565b82525050565b60006118c082611874565b9050919050565b6118d0816118b5565b82525050565b60008115159050919050565b6118eb816118d6565b82525050565b600061012082019050611907600083018c611865565b611914602083018b611865565b611921604083018a6118a6565b61192e60608301896118c7565b61193b60808301886118e2565b61194860a08301876118e2565b61195560c08301866118e2565b61196260e0830185611865565b611970610100830184611865565b9a9950505050505050505050565b600081519050919050565b600082825260208201905092915050565b6000819050602082019050919050565b6119b381611802565b82525050565b6119c281611894565b82525050565b6119d1816118b5565b82525050565b6119e0816118d6565b82525050565b610120820160008201516119fd60008501826119aa565b506020820151611a1060208501826119aa565b506040820151611a2360408501826119b9565b506060820151611a3660608501826119c8565b506080820151611a4960808501826119d7565b5060a0820151611a5c60a08501826119d7565b5060c0820151611a6f60c08501826119d7565b5060e0820151611a8260e08501826119aa565b50610100820151611a976101008501826119aa565b50505050565b6000611aa983836119e6565b6101208301905092915050565b6000602082019050919050565b6000611ace8261197e565b611ad88185611989565b9350611ae38361199a565b8060005b83811015611b14578151611afb8882611a9d565b9750611b0683611ab6565b925050600181019050611ae7565b5085935050505092915050565b60006020820190508181036000830152611b3b8184611ac3565b905092915050565b600081519050919050565b600082825260208201905092915050565b6000819050602082019050919050565b600081519050919050565b600082825260208201905092915050565b60005b83811015611ba9578082015181840152602081019050611b8e565b60008484015250505050565b6000601f19601f8301169050919050565b6000611bd182611b6f565b611bdb8185611b7a565b9350611beb818560208601611b8b565b611bf481611bb5565b840191505092915050565b600061010083016000830151611c1860008601826119aa565b506020830151611c2b60208601826119aa565b5060408301518482036040860152611c438282611bc6565b91505060608301518482036060860152611c5d8282611bc6565b9150506080830151611c7260808601826119c8565b5060a0830151611c8560a08601826119d7565b5060c0830151611c9860c08601826119b9565b5060e0830151611cab60e08601826119aa565b508091505092915050565b6000611cc28383611bff565b905092915050565b6000602082019050919050565b6000611ce282611b43565b611cec8185611b4e565b935083602082028501611cfe85611b5f565b8060005b85811015611d3a5784840389528151611d1b8582611cb6565b9450611d2683611cca565b925060208a01995050600181019050611d02565b50829750879550505050505092915050565b60006020820190508181036000830152611d668184611cd7565b905092915050565b600061010083016000830151611d8760008601826119aa565b506020830151611d9a60208601826119aa565b5060408301518482036040860152611db28282611bc6565b91505060608301518482036060860152611dcc8282611bc6565b9150506080830151611de160808601826119c8565b5060a0830151611df460a08601826119d7565b5060c0830151611e0760c08601826119b9565b5060e0830151611e1a60e08601826119aa565b508091505092915050565b60006020820190508181036000830152611e3f8184611d6e565b905092915050565b600082825260208201905092915050565b6000611e6382611b6f565b611e6d8185611e47565b9350611e7d818560208601611b8b565b611e8681611bb5565b840191505092915050565b600061010082019050611ea7600083018b611865565b611eb4602083018a611865565b8181036040830152611ec68189611e58565b90508181036060830152611eda8188611e58565b9050611ee960808301876118c7565b611ef660a08301866118e2565b611f0360c08301856118a6565b611f1060e0830184611865565b9998505050505050505050565b61012082016000820151611f3460008501826119aa565b506020820151611f4760208501826119aa565b506040820151611f5a60408501826119b9565b506060820151611f6d60608501826119c8565b506080820151611f8060808501826119d7565b5060a0820151611f9360a08501826119d7565b5060c0820151611fa660c08501826119d7565b5060e0820151611fb960e08501826119aa565b50610100820151611fce6101008501826119aa565b50505050565b600061012082019050611fea6000830184611f1d565b92915050565b600080fd5b600080fd5b600080fd5b60008083601f84011261201557612014611ff0565b5b8235905067ffffffffffffffff81111561203257612031611ff5565b5b60208301915083600182028301111561204e5761204d611ffa565b5b9250929050565b600080600080600060608688031215612071576120706117f8565b5b600086013567ffffffffffffffff81111561208f5761208e6117fd565b5b61209b88828901611fff565b9550955050602086013567ffffffffffffffff8111156120be576120bd6117fd565b5b6120ca88828901611fff565b935093505060406120dd88828901611823565b9150509295509295909350565b60006020820190506120ff6000830184611865565b92915050565b7f4e487b7100000000000000000000000000000000000000000000000000000000600052602260045260246000fd5b6000600282049050600182168061214c57607f821691505b60208210810361215f5761215e612105565b5b50919050565b7f4e487b7100000000000000000000000000000000000000000000000000000000600052603260045260246000fd5b7f54686520657363726f77206973206e6f74206163746976650000000000000000600082015250565b60006121ca601883611e47565b91506121d582612194565b602082019050919050565b600060208201905081810360008301526121f9816121bd565b9050919050565b7f54686520657363726f7720697320636c6f736564000000000000000000000000600082015250565b6000612236601483611e47565b915061224182612200565b602082019050919050565b6000602082019050818103600083015261226581612229565b9050919050565b7f5468652061756374696f6e206973206e6f742061637469766500000000000000600082015250565b60006122a2601983611e47565b91506122ad8261226c565b602082019050919050565b600060208201905081810360008301526122d181612295565b9050919050565b7f54686520616d6f756e74206973206e6f7420656e6f7567680000000000000000600082015250565b600061230e601883611e47565b9150612319826122d8565b602082019050919050565b6000602082019050818103600083015261233d81612301565b9050919050565b7f5468652061756374696f6e20697320636c6f7365640000000000000000000000600082015250565b600061237a601583611e47565b915061238582612344565b602082019050919050565b600060208201905081810360008301526123a98161236d565b9050919050565b7f4f6e6c7920746865206f776e65722063616e20636c6f7365207468652061756360008201527f74696f6e00000000000000000000000000000000000000000000000000000000602082015250565b600061240c602483611e47565b9150612417826123b0565b604082019050919050565b6000602082019050818103600083015261243b816123ff565b9050919050565b7f4e487b7100000000000000000000000000000000000000000000000000000000600052601160045260246000fd5b600061247c82611802565b915061248783611802565b925082820190508082111561249f5761249e612442565b5b92915050565b7f4e487b7100000000000000000000000000000000000000000000000000000000600052604160045260246000fd5b60008190508160005260206000209050919050565b60006020601f8301049050919050565b600082821b905092915050565b6000600883026125367fffffffffffffffffffffffffffffffffffffffffffffffffffffffffffffffff826124f9565b61254086836124f9565b95508019841693508086168417925050509392505050565b6000819050919050565b600061257d61257861257384611802565b612558565b611802565b9050919050565b6000819050919050565b61259783612562565b6125ab6125a382612584565b848454612506565b825550505050565b600090565b6125c06125b3565b6125cb81848461258e565b505050565b5b818110156125ef576125e46000826125b8565b6001810190506125d1565b5050565b601f82111561263457612605816124d4565b61260e846124e9565b8101602085101561261d578190505b612631612629856124e9565b8301826125d0565b50505b505050565b600082821c905092915050565b600061265760001984600802612639565b1980831691505092915050565b60006126708383612646565b9150826002028217905092915050565b61268982611b6f565b67ffffffffffffffff8111156126a2576126a16124a5565b5b6126ac8254612134565b6126b78282856125f3565b600060209050601f8311600181146126ea57600084156126d8578287015190505b6126e28582612664565b86555061274a565b601f1984166126f8866124d4565b60005b82811015612720578489015182556001820191506020850194506020810190506126fb565b8683101561273d5784890151612739601f891682612646565b8355505b6001600288020188555050505b50505050505056fea26469706673582212204d688038a4653098539f54d74dba233d8045ce3df55c7fd39fc7a5ea166d0ca764736f6c63430008110033",
  "linkReferences": {},
  "deployedLinkReferences": {}
}